:020000040800F2
:10000000282C00201D01000805040008ED0300084D
:1000100001040008AD010008090600080000000006
:1000200000000000000000000000000017040008AD
:1000300085030008000000001504000835010008D1
:1000400037010008370100083701000837010008B0
:1000500037010008370100083701000837010008A0
:100060003701000837010008370100083701000890
:1000700037010008B10100083701000879020008C3
:100080003701000837010008370100083701000870
:100090003701000837010008370100083701000860
:1000A0003701000837010008370100083701000850
:1000B0003701000837010008370100083701000840
:1000C0003701000837010008370100083701000830
:1000D000370100083701000837010008F104000863
:1000E0003701000837010008370100080000000050
:1000F0000000000000000000000000000000000000
:1001000037010008DFF810D000F03EF80048004743
:10011000E10F0008AFF30080282C0020064880473C
:1001200006480047FEE7FEE7FEE7FEE7FEE7FEE7DC
:10013000FEE7FEE7FEE7FEE71904000805010008F8
:1001400040EA01039B0703D009E008C9121F08C059
:10015000042AFAD203E011F8013B00F8013B521ED9
:10016000F9D27047D2B201E000F8012B491EFBD250
:1001700070470022F6E710B513460A4604461946B2
:10018000FFF7F0FF204610BD064C074D06E0E06883
:1001900040F0010394E8070098471034AC42F6D3CE
:1001A000FFF7B4FF2C1C00084C1C000800BFFEE742
:1001B00010B5022211462B4800F07AFB00284FD0E0
:1001C00002221146274800F06BFB0221254800F06F
:1001D000E4FA25480078401E244908702248006847
:1001E000401C0A5C20480168491C204800F040FE81
:1001F00001282AD11C48008881B21C4A521C1C4884
:10020000006800F0C0F8A0B179211A4801F04FFC55
:1002100000BF0721174801F0A9FC0028F9D00021F0
:10022000144801F096FC40F20531124801F0ADFC93
:1002300016E0FF210F4801F03AFC00BF06210D48EF
:1002400001F094FC0028F9D00AE0FF21094801F0F0
:100250002EFC00BF0621074801F088FC0028F9D0D9
:1002600010BD0000000002400800002040000020F7
:10027000180000200048004010B5022204211F4849
:1002800000F016FB002837D0022204211B4800F0A2
:1002900007FB0421194800F080FA19480078401E35
:1002A0001849087016480068401C0A5C1448016828
:1002B000491C144800F0DCFD01281DD110480088BD
:1002C00081B2104A521C1048006800F05CF898B1E6
:1002D00000BF07210D4801F049FC0028F9D0792121
:1002E0000A4801F0E4FB0021084801F032FC40F22A
:1002F0000531064801F049FC10BD00000000024035
:1003000008000020400000201800002000380140B4
:1003100000B587B04FF4A06001F0E4FA022116485E
:1003200000F086FA00208DF81A001448029001208F
:100330008DF81900002003904FF4167004901048B7
:10034000009000208DF8180001904FF44050059067
:100350006A460221084800F0B7FA0221064800F078
:100360004EFA0221044800F058FB0221024800F036
:100370002DFA07B000BD000000000240400200203E
:100380000448004070472DE9F84306468846174662
:100390004FF000094FF0010900F0D6FC40F20730A1
:1003A00000F036FC3446002517E057F825102046AB
:1003B00000F0ECFC04226946204601F0C3FA57F82D
:1003C00025000099884206D16D1C241D40F207309B
:1003D00000F01EFC01E000BF00BF06EB0800A042D9
:1003E000E3D800F025FC4846BDE8F88303480068E0
:1003F00000F0010000B100BE00BFFEE7F0ED00E03C
:1004000000BFFEE7704710B500221146272000F01C
:1004100011FF10BD7047704710B51448006840F0D8
:1004200001001249086008464068114908400F4918
:100430004860084600680F4908400C4908600846B3
:10044000006820F480200860084640680A49084097
:1004500006494860084600680649084003490860A4
:100460004FF41F00886001F0D1FA10BD0010024067
:100470000C00FFE8FFFFF6FEFFFF00F710B540F2AB
:100480000E6001F02FFA4FF4007303221821164872
:1004900000F008FD4FF4806303220421124800F0AD
:1004A00001FD124801F008FB4FF4E1310F4801F063
:1004B000B1FA4FF480610D4801F081FB4FF4805197
:1004C0000A4801F0ABFB0021084801F097FB04212A
:1004D000064801F07CFB0821044801F097FB034823
:1004E00001F03FFB10BD0000000801400038014052
:1004F00010B50421184801F039FB60B304211648F7
:1005000001F050FB144801F0CDFA0221134800F02D
:1005100044F90221114800F0B8FAC0F516701049EC
:10052000086008460F4902680F48FFF709FE0020DF
:100530000D490B4A126888540A4A0221074800F004
:100540005AFA4FF416720221044800F08BFA022185
:10055000024800F03BF910BD004800400000024096
:1005600010000020400200209804002010B540F246
:10057000127001F0B7F94FF4C06001F0B3F9012136
:100580001E4800F0E5FC4FF48063032218211C484C
:1005900000F088FC4FF4006303220421184800F0A7
:1005A00081FC184801F088FA4FF4E131154801F058
:1005B00031FA0021134801F021FB0021114801F01C
:1005C000FEFA00210F4801F029FB04210D4801F03B
:1005D000FEFA04210B4801F0E5FA0821094801F070
:1005E00015FB084801F0BDFA4021064801F0B1FAB8
:1005F0004FF44171034801F0C8FA10BD1000140017
:10060000001001400048004000BFFEE7014A0249D7
:1006100000F013B84D0E00083C00002002E008C8AE
:10062000121F08C1002AFAD170477047002001E06C
:1006300001C1121F002AFBD170472DE9F041164677
:100640000F460446002503E03946B047641C6D1C84
:1006500020780028F8D12846BDE8F08130B5024660
:100660000020002300BF05E012F8015B2C18A0B2A7
:100670005C1CA3B28B42F7DB30BD000010B5044612
:10068000204600F04FF808B9002010BD1CA0FFF76D
:10069000BDFF2079A17988420AD16079E179884249
:1006A00006D12079617940EA01201B49088001E0E8
:1006B0000020EAE718480088801C215C1648008862
:1006C000C01C205C41EA00201449088012480088C0
:1006D000801E81B2201DFFF7C1FF11490880084626
:1006E00000880E490988884201D00020CDE72046C5
:1006F00000F02CF808B90020C7E700BFC5E70000EC
:1007000009B3CCD0F2B8FCD0C2B1EAD6BEB8FCD0A6
:10071000C2CAA7B0DC0A00002C0000203000002074
:100720002E00002002460020014609E0505C064BE6
:100730005B5C984201D000207047481CC0B2014663
:100740000429F3DB00BFF7E7240000200246002065
:1007500001460DE008480088001D0844105C074B66
:100760005B5C984201D000207047481CC0B2014633
:100770000429EFDB00BFF7E72C0000202800002051
:10078000014605E0002001E0421CD0B21B28FBDB43
:100790000A1EA1F10101F5D1704770B505460C465E
:1007A0002146284600F052F908B900BFFEE704EBE5
:1007B0008400810005F10800405820F0010104EB9D
:1007C0008400820005F10800815070BD70B50546B7
:1007D0000C462146284600F039F908B900BFFEE76B
:1007E00004EB8400810005F10800405840F001014D
:1007F00004EB8400820005F10800815070BD70B5E3
:1008000005460C462146284600F020F908B900BFED
:10081000FEE704EB8400810005F10800405820F059
:10082000200104EB8400820005F10800815070BDB6
:1008300070B504460D462946204600F007F908B970
:1008400000BFFEE705EB8500810004F10800405879
:1008500020F0010105EB8500820004F108008150C1
:10086000002105EB8500820004F10800815005EBB2
:100870008500820004F10C00815005EB85008200A8
:1008800004F11000815005EB8500820004F1140092
:1008900081506068AA000F2191400843606070BDDC
:1008A00010B543688C0002FA04F42343436010BD82
:1008B00030B503461C688D0002FA05F52C400CB1DA
:1008C000012000E0002030BD2DE9F04104460D4636
:1008D00016462946204600F0B9F808B900BFFEE7E1
:1008E00005EB8500820004F110003168815005EBB2
:1008F0008500820004F11400B1688150308A81B211
:1009000005EB8500820004F10C00815005EB8500A9
:10091000810004F10800475827F47C57F16870689B
:10092000084371690843074305EB8500810004F122
:1009300008004750307E01280ED105EB850081006C
:1009400004F10800405840F0400105EB85008200AA
:1009500004F1080081500DE005EB8500810004F1F1
:100960000800405820F0400105EB8500820004F1AA
:1009700008008150707E01280ED105EB85008100B2
:1009800004F10800405840F0800105EB850082002A
:1009900004F1080081500DE005EB8500810004F1B1
:1009A0000800405820F0800105EB8500820004F12A
:1009B00008008150B07E70B905EB8500810004F11C
:1009C0000800405820F0100105EB8500820004F17A
:1009D000080081500DE005EB8500810004F108005E
:1009E000405840F0100105EB8500820004F108003A
:1009F0008150BDE8F08170B506460C46154621468B
:100A0000304600F023F808B900BFFEE704EB84008D
:100A1000810006F11400455070BD70B505460C46C6
:100A20002146284600F012F808B900BFFEE704EBA3
:100A30008400810005F10800405820F4804104EB57
:100A40008400820005F10800815070BD024601203B
:100A5000034B9A4202D1042900DD002070470000B8
:100A60000004024070B506460C4615462146304645
:100A7000FFF7ECFF08B900BFFEE7A9B204EB840062
:100A8000820006F10C00815070BD70B505460C4621
:100A900021462846FFF7DAFF08B900BFFEE704EB5E
:100AA0008400810005F10C00405870BD10B5012391
:100AB000022210211A4800F0F5F94FF400730222C7
:100AC0001021184800F0EEF94FF4005302221021D3
:100AD000154800F0E7F9012011491431086040027F
:100AE00010491431086000010F49486141F2883013
:100AF000FFF746FE01200A491031086041F28830B4
:100B0000FFF73EFE4FF400500749086141F288307C
:100B1000FFF736FE4FF4007002491031086010BD37
:100B200000080140000C0140001001402DE9F04197
:100B300005460E464FF00067381400FB067800F0BB
:100B400003F940F2073000F063F8002409E008EBF5
:100B5000842000F083F840F2073000F059F8601C60
:100B600084B2AC42F3DBBDE8F08100B5034601225C
:100B700000BF00F00BF802465B1E012A01D1002BDA
:100B8000F7D1012A00D10422104600BD00200A49F5
:100B9000C96801F0010109B101200CE00649C968EA
:100BA00001F0100109B1032005E00349C96801F013
:100BB000040101B1022070470020024000B5034645
:100BC000012200BF00F00CF802465B1E012A01D191
:100BD000002BF7D1012A00D10422104600BD0000ED
:100BE00000200A49C96C01F0010109B101200CE0A3
:100BF0000649C96C01F0100109B1032005E0034961
:100C0000C96C01F0040101B10220704700200240CC
:100C1000064A02EB9011096800F01F0301229A4076
:100C20001143024B03EB9012116070470020024009
:100C30000848006940F080000649086106480088BD
:100C4000B0F5007F04D90846006D40F080000865CB
:100C50007047000000200240E0F7FF1F30B5054656
:100C600036480088B0F5007F48D9354885421ED205
:100C70004FF47020FFF779FF0446002C5BD1314818
:100C8000006940F002002F4908610846456100698B
:100C900040F0400008614FF47020FFF766FF044603
:100CA0002848006920F002002649086143E04FF41B
:100CB0007020FFF783FF0446002C3CD12148006DD3
:100CC00040F002001F49086508464565C06900F00C
:100CD000020008B1084645611A48006D40F0400026
:100CE000184908654FF47020FFF768FF044615485F
:100CF000006D20F00200134908651CE04FF47020DD
:100D0000FFF733FF0446B4B90E48006940F0020013
:100D10000C49086108464561006940F040000861DF
:100D20004FF47020FFF721FF04460648006920F0C9
:100D3000020004490861204630BD0000E0F7FF1FB3
:100D4000FFFF0708002002400C48006900F0800007
:100D500020B10B48094948600A4848600A480088A1
:100D6000B0F5007F09D90548006D00F0800020B182
:100D70000348024948640348486470470020024021
:100D800023016745AB89EFCDE0F7FF1F70B504463F
:100D90000D4600262A480088B0F5007F35D929483D
:100DA000844219D24FF47020FFF7DFFE0646002E72
:100DB00043D12548006940F00100234908612560BE
:100DC0004FF47020FFF7D1FE06461F48006920F05F
:100DD00001001D49086130E04FF47020FFF7EEFE7E
:100DE000064656BB1848006D40F0010016490865DC
:100DF00025604FF47020FFF7E1FE06461248006DB3
:100E000020F001001049086517E04FF47020FFF74B
:100E1000ACFE06468EB90C48006940F001000A4954
:100E2000086125604FF47020FFF79FFE06460648D4
:100E3000006920F0010004490861304670BD0000DF
:100E4000E0F7FF1FFFFF07080020024070B50446CF
:100E50000D46E1B2054800F02AFE00BF0621034816
:100E600000F084FE0028F9D0204670BD0038014013
:100E700070B50446154600262246012903D1107894
:100E8000C043C6B208E0002304E010784640521C7C
:100E9000581C83B28B42F8D3AE4201D1012070BD01
:100EA0000020FCE7F0B5044616460025002201F0BC
:100EB0000F0501F0100707B1354300201EE00127A0
:100EC00087401F40C7B122684FEA800C0F2707FAFE
:100ED0000CF7BA43870005FA07F73A43282904D1EB
:100EE000012787401F40676105E0482903D101279A
:100EF00087401F4027612260471CB8B20828DED314
:100F0000082022E0012787401F40E7B16268A0F176
:100F100008074FEA870C0F2707FA0CF7BA43A0F12E
:100F20000807BF0005FA07F73A43282904D101272B
:100F300087401F40676105E0482903D101278740AA
:100F40001F4027616260471CB8B21028DAD3F0BD99
:100F5000F0B50A46002300240021002500F00046D9
:100F6000B6F1004F02D11D4EF16901E01B4E7168D0
:100F7000C0F3034583B200F44016B6F5401F08D114
:100F800021F07061154E766826F07066134F7E6012
:100F900012E000F48016B6F5801F06D1032606FA8B
:100FA00005F4A14341F0706106E0460D360103FAF5
:100FB00006F6B14341F0706122B1460D360103FAE5
:100FC00006F6314300F00046B6F1004F02D1034E61
:100FD000F16101E0014E7160F0BD000000000140D0
:100FE0000EB500200190029000247920704908700D
:100FF00040F2026000F076FC40F2036000F072FC08
:1010000040F2046000F06EFC01216A48FFF7A0FF87
:10101000FFF77EF9FFF7AAFAFFF7F5F9FFF72EFAC7
:1010200065486649086020208880C88040F60170C5
:1010300008810020488141F2111088810020C88178
:10104000EE200882488245F2555088824000C882CE
:101050000020088300BF06E001A8015D57481A3050
:101060000155601CC4B2082CF6DB1E215348001D3C
:10107000FFF7F4FA514948845148486251480068E2
:10108000D0B150480068012816D0002000900421FB
:101090000120FFF74BFD6A4604214A48FFF773F928
:1010A000012809D06A4604214648FFF76CF9012857
:1010B00002D045A0FFF7AAFA42480068002844D1B0
:1010C0004848006848490840B0F1005F1BD14748D4
:1010D00000F03AFD464800F037FD02214548FFF791
:1010E0005CFB4048001D00684349086008460068F2
:1010F000424908603B49086880F3088800BF3F48C0
:101100000068804721E0FFF7D1FC3D48FFF738FB3E
:10111000FF21374800F0CBFCFF2025490870012053
:1011200000900421FFF702FD6A4604212548FFF7DD
:101130002AF9012809D06A4604212248FFF723F939
:10114000012802D02FA0FFF761FA1E48406801284D
:1011500012D100240DE01948015D254800F0A7FCDC
:1011600000BF0621224800F001FD0028F9D0601CD4
:10117000C4B2282CEFDB0BE0FFF798FC2048FFF708
:10118000FFFAFF211A4800F092FC22A0FFF73EFA76
:101190000CE04FF4FA70FFF7F3FA2448006828B126
:1011A000234800F0A7F8002020490860F1E700007C
:1011B0000C0000200002300055AA7E7EF0060020C0
:1011C0005AFE0D0D0020000809B3CCD0F2B8FCD0B7
:1011D000C2B1EAD6BEB3F5CABCBBAFCAA7B0DC0A7F
:1011E00000000000002800080000FE2F0038014029
:1011F00000480040000002400400002000000020E1
:1012000020A1070009D0B4B1EAD6BECEBBCAA7B0B0
:10121000DC210A0009B5C8B4FDB3CCD0F2B8FCD0CB
:10122000C22E2E2E2E2E2E0A0000000010000020AE
:10123000980400202DE9F04103460D46164600248F
:101240000027A0462448006800F4E060B0F5A06FD5
:1012500015D006DCB0F5407F18D0B0F5806F19D1FD
:1012600010E0B0F5C06F06D0B0F5E06F12D10027E6
:101270004FF0040815E001274FF0030811E00227A2
:10128000B8460EE003274FF001080AE004274FF0AC
:10129000000806E04FF4A06000F022F80227B846EC
:1012A00000BF00BFC7F1040005FA00F4C8F1040153
:1012B0000F20C8403040044324010848C45403F0C0
:1012C0001F01012088405911890001F1E021C1F876
:1012D0000001BDE8F08100000CED00E000E400E05A
:1012E00002490143024A1160704700000000FA05FC
:1012F0000CED00E0F0B587B0044600250020049016
:101300000590019002900390002600272046FFF7E9
:10131000B5F910B9002007B0F0BD207A617A40EA33
:101320000120F6490880084600886FF4605108449F
:1013300040B1B0F5384F06D06FF43841084400286A
:101340007ED1DEE033E2E0780006A17840EA014099
:10135000617840EA012021780843E9490860207952
:10136000617940EA0120E6498880A079E17940EA84
:101370000120E349C880207A617A40EA0120E049EF
:101380000881A07AE17A40EA0120DD494881207B8A
:10139000617B40EA0120DA498881A07BE17B40EA59
:1013A0000120D749C881207C617C40EA0120D449D2
:1013B0000882A07CE17C40EA0120D1494882207D5E
:1013C000617D40EA0120CE498882A07DE17D40EA2E
:1013D0000120CB49C882E07E0006A17E40EA0140A0
:1013E000617E40EA0120217E0843C54988610025CD
:1013F00007E005F11C00215CC1481C304155681C08
:1014000005B2062DF5DB14F8220F617840EA0120C1
:10141000BB49488460790006217940EA0140E178BF
:1014200040EA0120A178223C0843B5494862B5480A
:10143000B549086020208880C88040F6017000E02F
:10144000B4E10881AE4840894881AD4880898881EF
:10145000AB48C089C881AA48008A0882A848408A47
:101460004882A748808A88824AF6AA20C88200203B
:101470000883002506E004A8415DA3481A304155C1
:10148000681C05B2082DF6DB1E219F48001DFFF7E2
:10149000E5F89D4948849D4848629948808AA0F5AE
:1014A000AA40553820B1A0F5AA40553830BB12E00B
:1014B00000250DE09648415D964800F0F8FA00BF1F
:1014C0000621944800F052FB0028F9D0681C05B2B0
:1014D000282DEFDB13E000250DE08B48415D8D48A2
:1014E00000F0E5FA00BF06218A4800F03FFB002823
:1014F000F9D0681C05B2282DEFDB00E000BF00BF6B
:1015000055E1E0780006A17840EA0140617840EAC0
:10151000012021780843804908602079617940EAF8
:1015200001207D498880A079E17940EA01207A494B
:10153000C880207A617A40EA012077490881A07A40
:10154000E17A40EA012074494881207B617B40EACE
:10155000012071498881A07BE17B40EA01206E492E
:10156000C881207C617C40EA01206B490882A07C14
:10157000E17C40EA012068494882E07D0006A17DC7
:1015800040EA0140617D40EA0120217D0843624933
:101590004861002507E005F11800215C5E4818301D
:1015A0004155681C05B2B5F5007FF4DB94F81802CC
:1015B00094F8191240EA01205749A1F8180294F84A
:1015C0001A0294F81B1240EA01205349A1F81A02AA
:1015D00094F81F02000694F81E1240EA014094F8A5
:1015E0001D1240EA012094F81C1208434A49C1F830
:1015F0001C02A07CE17C40EA012600F0F1FA002008
:10160000464908804448408901281BD1069004219E
:10161000FFF78CFA06AA04214148FEF7B4FE012820
:1016200009D006AA04213E48FEF7ADFE012802D0EB
:101630003CA0FEF7EBFF3F483F49086005216420CE
:10164000FFF774FA344A183231463B480068FEF717
:101650009AFE002851D03048008A43282AD1002021
:10166000009004210120FFF761FA6A4604212C480A
:10167000FEF789FE012809D06A4604212848FEF7B2
:1016800082FE012802D02DA0FEF7C0FF6A46042189
:101690002348001DFEF777FE01280AD06A46042180
:1016A0001F48001DFEF76FFE012802D01DA0FEF7A7
:1016B000ADFF00BF1848408A1F49096808441E4909
:1016C000086010482349086020208880C88040F6C0
:1016D000027008811048408948810F4880898881BC
:1016E0000020C8810C48C08908820B48008A4882C3
:1016F0000948408A8882002534E056E03200002004
:101700008C09002055AA7E7EB40900205AFE0D0DDA
:10171000F006002000480040DC0900202C000020DA
:101720000020000809D0B4B1EAD6BECEBBCAA7B02B
:10173000DC210A00002800083800002009B3CCD0C2
:10174000F2B8FCD0C2B1EAD6BEB8FCD0C2CAA7B0CB
:10175000DC0A0000FC0B002001A8415D1548415542
:10176000681C05B20C2DF7DB1E2112481238FEF75B
:1017700075FF07460F48163847840F480D4916393C
:10178000486200250EE00B481638415D0B4800F01A
:101790008EF900BF0621094800F0E8F90028F9D0C9
:1017A000681C05B2282DEEDB01E000E000BF00BFA1
:1017B0000020B0E5120C00205AFE0D0D004800403C
:1017C0002DE9F04F8BB00746002009903EA090E82D
:1017D000004CC068CDE905BECDF810A007900FF20F
:1017E000EC0ADAE9000ACDE9020A0FF2E00ADAE9C6
:1017F000000ACDE9000A38484068C0F381000A9029
:101800000A9820B1012804D0022829D103E03349E5
:1018100028E0324926E03048406800F48038B8F5C6
:10182000803F09D12D4C2C48406800F40039B9F5AF
:10183000003F02D1641000E0294C27484068C0F303
:1018400083422548406800F0006008B142F0100271
:101850000F2A01D2921C00E0521C04FB02F101E0AD
:101860001E4900BF00BF1C484068C0F3031504A810
:10187000465D21FA06F318484068C0F3022502A825
:10188000465D23FA06FC14484068C0F3C2251DF8E3
:10189000056023FA06F0089037B1012F06D0022F19
:1018A00006D0032F0AD106E0099108E0099306E06B
:1018B000CDF824C003E00898099000E000BF00BF05
:1018C00009980BB0BDE8F08F000000000000000098
:1018D00001020304060708090010024000127A0002
:1018E00000093D00064A02EB9011096800F01F0351
:1018F00001229A401143024B03EB90121160704792
:1019000000100240064A02EB9011096800F01F0324
:1019100001229A409143024B03EB901211607047F1
:1019200000100240064A02EB9011096800F01F0304
:1019300001229A401143024B03EB90121160704751
:101940000010024030B503461C46002004E0257814
:101950000D54641C451CE8B29042F8DB30BD000019
:1019600000200021264A126842F00102244B1A602E
:1019700000BF401C224A126802F0020111B9B0F502
:10198000A06FF6D11E4A126802F002020AB900BF27
:10199000FEE71B4A52681A4B5A601A4652685A6050
:1019A0001A46526842F480625A601A465268154BD1
:1019B0001A40134B5A601A465268134B1A43104B85
:1019C0005A601A46126842F080721A6000BF0C4AD0
:1019D000126802F00072002AF9D0094A526822F017
:1019E0000302074B5A601A46526842F002025A60DC
:1019F00000BF034A526802F00802002AF9D070477B
:101A000000100240FFFFC3F70000280810B5FFF7E1
:101A1000A7FF10BD2DE9F04704460D460027B84644
:101A2000B94600261D49601A8C421CD006DC1C48B1
:101A3000204470B1B0F5806F1FD10FE0B0F5806F1A
:101A400016D0B0F56C4F18D10320FFF7B9FE07464A
:101A500014E00220FFF7B4FE07460FE00220FFF774
:101A6000AFFE07460AE00220FFF7AAFE074605E0A0
:101A70000220FFF7A5FE074600E000BF00BF07EB0E
:101A80005500B0FBF5F64FF6F07006EA000806F0D8
:101A90000F0948EA0900A060BDE8F087004C00404B
:101AA00000BCFFBF01464868C0F308007047C1F39F
:101AB000080242607047000010B504462049601AD1
:101AC0008C4228D006DC1F48204490B1B0F5806FCE
:101AD00033D117E0B0F5806F26D0B0F56C4F2CD124
:101AE00040F20E30FFF71EFF40F20E30FFF70AFF04
:101AF00024E040F21140FFF715FF40F21140FFF7DC
:101B000001FF1BE040F21240FFF70CFF40F21240D1
:101B1000FFF7F8FE12E040F21340FFF703FF40F238
:101B20001340FFF7EFFE09E040F21440FFF7FAFE22
:101B300040F21440FFF7E6FE00E000BF00BF10BD1A
:101B4000004C004000BCFFBFC16821F40051C160DF
:101B500070470A460021416921F04001114341616B
:101B60007047C16841F40051C160704710B502462A
:101B700002EB9110006801F01F040123A3401840FC
:101B800008B1012010BD0020FCE710B5C1F3891297
:101B9000825801F01F040123A3401A43C1F38913A3
:101BA000C25010BD10B500EB91521268C1F304444D
:101BB0000123A3409A4300EB91531A6010BDC26801
:101BC00022F4C062C260C2680A43C26070470A461B
:101BD0000021C16821F004011143C1607047000079
:101BE00010B54FF408710348FEF7C3FA002002490C
:101BF000088010BD3807002016000020026922F47A
:101C00004052026102690A43026170470A4600219C
:101C1000C16821F008011143C1607047C26822F415
:101C20008052C260C2680A43C26070474C1C000800
:101C300000000020400000001C0600088C1C00086A
:101C400040000020E82B00002C06000800000000E7
:101C50000000000000020000000000000000000082
:101C60000000000000000000000000000000000074
:101C700055AA7E7E5AFE0D0D0000000000000000F7
:0C1C800000000000002800080000000028
:0400000508000105E9
:00000001FF
